{
  "_format": "hh-sol-artifact-1",
  "contractName": "CrowdFunding",
  "sourceName": "contracts/CrowdFunding.sol",
  "abi": [
    {
      "inputs": [
        {
          "internalType": "string",
          "name": "_name",
          "type": "string"
        }
      ],
      "stateMutability": "nonpayable",
      "type": "constructor"
    },
    {
      "inputs": [
        {
          "internalType": "uint256",
          "name": "",
          "type": "uint256"
        }
      ],
      "name": "campaigns",
      "outputs": [
        {
          "internalType": "address",
          "name": "owner",
          "type": "address"
        },
        {
          "internalType": "string",
          "name": "title",
          "type": "string"
        },
        {
          "internalType": "string",
          "name": "description",
          "type": "string"
        },
        {
          "internalType": "uint256",
          "name": "target",
          "type": "uint256"
        },
        {
          "internalType": "uint256",
          "name": "deadline",
          "type": "uint256"
        },
        {
          "internalType": "uint256",
          "name": "amountCollected",
          "type": "uint256"
        },
        {
          "internalType": "string",
          "name": "image",
          "type": "string"
        }
      ],
      "stateMutability": "view",
      "type": "function"
    },
    {
      "inputs": [],
      "name": "contractName",
      "outputs": [
        {
          "internalType": "string",
          "name": "",
          "type": "string"
        }
      ],
      "stateMutability": "view",
      "type": "function"
    },
    {
      "inputs": [
        {
          "internalType": "address",
          "name": "_owner",
          "type": "address"
        },
        {
          "internalType": "string",
          "name": "_title",
          "type": "string"
        },
        {
          "internalType": "string",
          "name": "_description",
          "type": "string"
        },
        {
          "internalType": "uint256",
          "name": "_target",
          "type": "uint256"
        },
        {
          "internalType": "uint256",
          "name": "_deadline",
          "type": "uint256"
        },
        {
          "internalType": "string",
          "name": "_image",
          "type": "string"
        }
      ],
      "name": "createCampaign",
      "outputs": [
        {
          "internalType": "uint256",
          "name": "",
          "type": "uint256"
        }
      ],
      "stateMutability": "nonpayable",
      "type": "function"
    },
    {
      "inputs": [
        {
          "internalType": "uint256",
          "name": "_id",
          "type": "uint256"
        }
      ],
      "name": "donateToCampaign",
      "outputs": [],
      "stateMutability": "payable",
      "type": "function"
    },
    {
      "inputs": [],
      "name": "getCampaigns",
      "outputs": [
        {
          "components": [
            {
              "internalType": "address",
              "name": "owner",
              "type": "address"
            },
            {
              "internalType": "string",
              "name": "title",
              "type": "string"
            },
            {
              "internalType": "string",
              "name": "description",
              "type": "string"
            },
            {
              "internalType": "uint256",
              "name": "target",
              "type": "uint256"
            },
            {
              "internalType": "uint256",
              "name": "deadline",
              "type": "uint256"
            },
            {
              "internalType": "uint256",
              "name": "amountCollected",
              "type": "uint256"
            },
            {
              "internalType": "string",
              "name": "image",
              "type": "string"
            },
            {
              "internalType": "address[]",
              "name": "donators",
              "type": "address[]"
            },
            {
              "internalType": "uint256[]",
              "name": "donations",
              "type": "uint256[]"
            }
          ],
          "internalType": "struct CrowdFunding.Campaign[]",
          "name": "allCampaigns",
          "type": "tuple[]"
        }
      ],
      "stateMutability": "view",
      "type": "function"
    },
    {
      "inputs": [
        {
          "internalType": "uint256",
          "name": "_id",
          "type": "uint256"
        }
      ],
      "name": "getDonators",
      "outputs": [
        {
          "internalType": "address[]",
          "name": "",
          "type": "address[]"
        },
        {
          "internalType": "uint256[]",
          "name": "",
          "type": "uint256[]"
        }
      ],
      "stateMutability": "view",
      "type": "function"
    },
    {
      "inputs": [],
      "name": "numberOfCampaigns",
      "outputs": [
        {
          "internalType": "uint256",
          "name": "",
          "type": "uint256"
        }
      ],
      "stateMutability": "view",
      "type": "function"
    }
  ],
  "bytecode": "0x608060405260006001553480156200001657600080fd5b5060405162001eb838038062001eb883398181016040528101906200003c9190620001e8565b80600290816200004d919062000484565b50506200056b565b6000604051905090565b600080fd5b600080fd5b600080fd5b600080fd5b6000601f19601f8301169050919050565b7f4e487b7100000000000000000000000000000000000000000000000000000000600052604160045260246000fd5b620000be8262000073565b810181811067ffffffffffffffff82111715620000e057620000df62000084565b5b80604052505050565b6000620000f562000055565b9050620001038282620000b3565b919050565b600067ffffffffffffffff82111562000126576200012562000084565b5b620001318262000073565b9050602081019050919050565b60005b838110156200015e57808201518184015260208101905062000141565b60008484015250505050565b6000620001816200017b8462000108565b620000e9565b905082815260208101848484011115620001a0576200019f6200006e565b5b620001ad8482856200013e565b509392505050565b600082601f830112620001cd57620001cc62000069565b5b8151620001df8482602086016200016a565b91505092915050565b6000602082840312156200020157620002006200005f565b5b600082015167ffffffffffffffff81111562000222576200022162000064565b5b6200023084828501620001b5565b91505092915050565b600081519050919050565b7f4e487b7100000000000000000000000000000000000000000000000000000000600052602260045260246000fd5b600060028204905060018216806200028c57607f821691505b602082108103620002a257620002a162000244565b5b50919050565b60008190508160005260206000209050919050565b60006020601f8301049050919050565b600082821b905092915050565b6000600883026200030c7fffffffffffffffffffffffffffffffffffffffffffffffffffffffffffffffff82620002cd565b620003188683620002cd565b95508019841693508086168417925050509392505050565b6000819050919050565b6000819050919050565b6000620003656200035f620003598462000330565b6200033a565b62000330565b9050919050565b6000819050919050565b620003818362000344565b6200039962000390826200036c565b848454620002da565b825550505050565b600090565b620003b0620003a1565b620003bd81848462000376565b505050565b5b81811015620003e557620003d9600082620003a6565b600181019050620003c3565b5050565b601f8211156200043457620003fe81620002a8565b6200040984620002bd565b8101602085101562000419578190505b620004316200042885620002bd565b830182620003c2565b50505b505050565b600082821c905092915050565b6000620004596000198460080262000439565b1980831691505092915050565b600062000474838362000446565b9150826002028217905092915050565b6200048f8262000239565b67ffffffffffffffff811115620004ab57620004aa62000084565b5b620004b7825462000273565b620004c4828285620003e9565b600060209050601f831160018114620004fc5760008415620004e7578287015190505b620004f3858262000466565b86555062000563565b601f1984166200050c86620002a8565b60005b8281101562000536578489015182556001820191506020850194506020810190506200050f565b8683101562000556578489015162000552601f89168262000446565b8355505b6001600288020188555050505b505050505050565b61193d806200057b6000396000f3fe6080604052600436106100705760003560e01c806342a4fda81161004e57806342a4fda81461012157806375d0c0dc1461013d5780639943e3a114610168578063a6b03633146101a557610070565b806307ca140d146100755780630fa91fa9146100a0578063141961bc146100de575b600080fd5b34801561008157600080fd5b5061008a6101d0565b6040516100979190610bf4565b60405180910390f35b3480156100ac57600080fd5b506100c760048036038101906100c29190610c4f565b6101d6565b6040516100d5929190610e2a565b60405180910390f35b3480156100ea57600080fd5b5061010560048036038101906101009190610c4f565b6102e6565b6040516101189796959493929190610f00565b60405180910390f35b61013b60048036038101906101369190610c4f565b6104e0565b005b34801561014957600080fd5b50610152610640565b60405161015f9190610f84565b60405180910390f35b34801561017457600080fd5b5061018f600480360381019061018a9190611107565b6106ce565b60405161019c9190610bf4565b60405180910390f35b3480156101b157600080fd5b506101ba6107af565b6040516101c791906114b3565b60405180910390f35b60015481565b6060806000808481526020019081526020016000206007016000808581526020019081526020016000206008018180548060200260200160405190810160405280929190818152602001828054801561028457602002820191906000526020600020905b8160009054906101000a900473ffffffffffffffffffffffffffffffffffffffff1673ffffffffffffffffffffffffffffffffffffffff168152602001906001019080831161023a575b50505050509150808054806020026020016040519081016040528092919081815260200182805480156102d657602002820191906000526020600020905b8154815260200190600101908083116102c2575b5050505050905091509150915091565b60006020528060005260406000206000915090508060000160009054906101000a900473ffffffffffffffffffffffffffffffffffffffff169080600101805461032f90611504565b80601f016020809104026020016040519081016040528092919081815260200182805461035b90611504565b80156103a85780601f1061037d576101008083540402835291602001916103a8565b820191906000526020600020905b81548152906001019060200180831161038b57829003601f168201915b5050505050908060020180546103bd90611504565b80601f01602080910402602001604051908101604052809291908181526020018280546103e990611504565b80156104365780601f1061040b57610100808354040283529160200191610436565b820191906000526020600020905b81548152906001019060200180831161041957829003601f168201915b50505050509080600301549080600401549080600501549080600601805461045d90611504565b80601f016020809104026020016040519081016040528092919081815260200182805461048990611504565b80156104d65780601f106104ab576101008083540402835291602001916104d6565b820191906000526020600020905b8154815290600101906020018083116104b957829003601f168201915b5050505050905087565b60003490506000806000848152602001908152602001600020905080600701339080600181540180825580915050600190039060005260206000200160009091909190916101000a81548173ffffffffffffffffffffffffffffffffffffffff021916908373ffffffffffffffffffffffffffffffffffffffff1602179055508060080182908060018154018082558091505060019003906000526020600020016000909190919091505560008160000160009054906101000a900473ffffffffffffffffffffffffffffffffffffffff1673ffffffffffffffffffffffffffffffffffffffff16836040516105d590611566565b60006040518083038185875af1925050503d8060008114610612576040519150601f19603f3d011682016040523d82523d6000602084013e610617565b606091505b50509050801561063a5782826005015461063191906115aa565b82600501819055505b50505050565b6002805461064d90611504565b80601f016020809104026020016040519081016040528092919081815260200182805461067990611504565b80156106c65780601f1061069b576101008083540402835291602001916106c6565b820191906000526020600020905b8154815290600101906020018083116106a957829003601f168201915b505050505081565b60008060008060015481526020019081526020016000209050878160000160006101000a81548173ffffffffffffffffffffffffffffffffffffffff021916908373ffffffffffffffffffffffffffffffffffffffff1602179055508681600101908161073b919061178a565b508581600201908161074d919061178a565b50848160030181905550838160040181905550600081600501819055508281600601908161077b919061178a565b506001600081548092919061078f9061185c565b9190505550600180546107a291906118a4565b9150509695505050505050565b606060015467ffffffffffffffff8111156107cd576107cc610fdc565b5b60405190808252806020026020018201604052801561080657816020015b6107f3610b79565b8152602001906001900390816107eb5790505b50905060005b600154811015610b75576000806000838152602001908152602001600020905080604051806101200160405290816000820160009054906101000a900473ffffffffffffffffffffffffffffffffffffffff1673ffffffffffffffffffffffffffffffffffffffff1673ffffffffffffffffffffffffffffffffffffffff16815260200160018201805461089f90611504565b80601f01602080910402602001604051908101604052809291908181526020018280546108cb90611504565b80156109185780601f106108ed57610100808354040283529160200191610918565b820191906000526020600020905b8154815290600101906020018083116108fb57829003601f168201915b5050505050815260200160028201805461093190611504565b80601f016020809104026020016040519081016040528092919081815260200182805461095d90611504565b80156109aa5780601f1061097f576101008083540402835291602001916109aa565b820191906000526020600020905b81548152906001019060200180831161098d57829003601f168201915b505050505081526020016003820154815260200160048201548152602001600582015481526020016006820180546109e190611504565b80601f0160208091040260200160405190810160405280929190818152602001828054610a0d90611504565b8015610a5a5780601f10610a2f57610100808354040283529160200191610a5a565b820191906000526020600020905b815481529060010190602001808311610a3d57829003601f168201915b5050505050815260200160078201805480602002602001604051908101604052809291908181526020018280548015610ae857602002820191906000526020600020905b8160009054906101000a900473ffffffffffffffffffffffffffffffffffffffff1673ffffffffffffffffffffffffffffffffffffffff1681526020019060010190808311610a9e575b5050505050815260200160088201805480602002602001604051908101604052809291908181526020018280548015610b4057602002820191906000526020600020905b815481526020019060010190808311610b2c575b505050505081525050838381518110610b5c57610b5b6118d8565b5b602002602001018190525050808060010191505061080c565b5090565b604051806101200160405280600073ffffffffffffffffffffffffffffffffffffffff16815260200160608152602001606081526020016000815260200160008152602001600081526020016060815260200160608152602001606081525090565b6000819050919050565b610bee81610bdb565b82525050565b6000602082019050610c096000830184610be5565b92915050565b6000604051905090565b600080fd5b600080fd5b610c2c81610bdb565b8114610c3757600080fd5b50565b600081359050610c4981610c23565b92915050565b600060208284031215610c6557610c64610c19565b5b6000610c7384828501610c3a565b91505092915050565b600081519050919050565b600082825260208201905092915050565b6000819050602082019050919050565b600073ffffffffffffffffffffffffffffffffffffffff82169050919050565b6000610cd382610ca8565b9050919050565b610ce381610cc8565b82525050565b6000610cf58383610cda565b60208301905092915050565b6000602082019050919050565b6000610d1982610c7c565b610d238185610c87565b9350610d2e83610c98565b8060005b83811015610d5f578151610d468882610ce9565b9750610d5183610d01565b925050600181019050610d32565b5085935050505092915050565b600081519050919050565b600082825260208201905092915050565b6000819050602082019050919050565b610da181610bdb565b82525050565b6000610db38383610d98565b60208301905092915050565b6000602082019050919050565b6000610dd782610d6c565b610de18185610d77565b9350610dec83610d88565b8060005b83811015610e1d578151610e048882610da7565b9750610e0f83610dbf565b925050600181019050610df0565b5085935050505092915050565b60006040820190508181036000830152610e448185610d0e565b90508181036020830152610e588184610dcc565b90509392505050565b610e6a81610cc8565b82525050565b600081519050919050565b600082825260208201905092915050565b60005b83811015610eaa578082015181840152602081019050610e8f565b60008484015250505050565b6000601f19601f8301169050919050565b6000610ed282610e70565b610edc8185610e7b565b9350610eec818560208601610e8c565b610ef581610eb6565b840191505092915050565b600060e082019050610f15600083018a610e61565b8181036020830152610f278189610ec7565b90508181036040830152610f3b8188610ec7565b9050610f4a6060830187610be5565b610f576080830186610be5565b610f6460a0830185610be5565b81810360c0830152610f768184610ec7565b905098975050505050505050565b60006020820190508181036000830152610f9e8184610ec7565b905092915050565b610faf81610cc8565b8114610fba57600080fd5b50565b600081359050610fcc81610fa6565b92915050565b600080fd5b600080fd5b7f4e487b7100000000000000000000000000000000000000000000000000000000600052604160045260246000fd5b61101482610eb6565b810181811067ffffffffffffffff8211171561103357611032610fdc565b5b80604052505050565b6000611046610c0f565b9050611052828261100b565b919050565b600067ffffffffffffffff82111561107257611071610fdc565b5b61107b82610eb6565b9050602081019050919050565b82818337600083830152505050565b60006110aa6110a584611057565b61103c565b9050828152602081018484840111156110c6576110c5610fd7565b5b6110d1848285611088565b509392505050565b600082601f8301126110ee576110ed610fd2565b5b81356110fe848260208601611097565b91505092915050565b60008060008060008060c0878903121561112457611123610c19565b5b600061113289828a01610fbd565b965050602087013567ffffffffffffffff81111561115357611152610c1e565b5b61115f89828a016110d9565b955050604087013567ffffffffffffffff8111156111805761117f610c1e565b5b61118c89828a016110d9565b945050606061119d89828a01610c3a565b93505060806111ae89828a01610c3a565b92505060a087013567ffffffffffffffff8111156111cf576111ce610c1e565b5b6111db89828a016110d9565b9150509295509295509295565b600081519050919050565b600082825260208201905092915050565b6000819050602082019050919050565b600082825260208201905092915050565b600061123082610e70565b61123a8185611214565b935061124a818560208601610e8c565b61125381610eb6565b840191505092915050565b600082825260208201905092915050565b600061127a82610c7c565b611284818561125e565b935061128f83610c98565b8060005b838110156112c05781516112a78882610ce9565b97506112b283610d01565b925050600181019050611293565b5085935050505092915050565b600082825260208201905092915050565b60006112e982610d6c565b6112f381856112cd565b93506112fe83610d88565b8060005b8381101561132f5781516113168882610da7565b975061132183610dbf565b925050600181019050611302565b5085935050505092915050565b6000610120830160008301516113556000860182610cda565b506020830151848203602086015261136d8282611225565b915050604083015184820360408601526113878282611225565b915050606083015161139c6060860182610d98565b5060808301516113af6080860182610d98565b5060a08301516113c260a0860182610d98565b5060c083015184820360c08601526113da8282611225565b91505060e083015184820360e08601526113f4828261126f565b91505061010083015184820361010086015261141082826112de565b9150508091505092915050565b6000611429838361133c565b905092915050565b6000602082019050919050565b6000611449826111e8565b61145381856111f3565b93508360208202850161146585611204565b8060005b858110156114a15784840389528151611482858261141d565b945061148d83611431565b925060208a01995050600181019050611469565b50829750879550505050505092915050565b600060208201905081810360008301526114cd818461143e565b905092915050565b7f4e487b7100000000000000000000000000000000000000000000000000000000600052602260045260246000fd5b6000600282049050600182168061151c57607f821691505b60208210810361152f5761152e6114d5565b5b50919050565b600081905092915050565b50565b6000611550600083611535565b915061155b82611540565b600082019050919050565b600061157182611543565b9150819050919050565b7f4e487b7100000000000000000000000000000000000000000000000000000000600052601160045260246000fd5b60006115b582610bdb565b91506115c083610bdb565b92508282019050808211156115d8576115d761157b565b5b92915050565b60008190508160005260206000209050919050565b60006020601f8301049050919050565b600082821b905092915050565b6000600883026116407fffffffffffffffffffffffffffffffffffffffffffffffffffffffffffffffff82611603565b61164a8683611603565b95508019841693508086168417925050509392505050565b6000819050919050565b600061168761168261167d84610bdb565b611662565b610bdb565b9050919050565b6000819050919050565b6116a18361166c565b6116b56116ad8261168e565b848454611610565b825550505050565b600090565b6116ca6116bd565b6116d5818484611698565b505050565b5b818110156116f9576116ee6000826116c2565b6001810190506116db565b5050565b601f82111561173e5761170f816115de565b611718846115f3565b81016020851015611727578190505b61173b611733856115f3565b8301826116da565b50505b505050565b600082821c905092915050565b600061176160001984600802611743565b1980831691505092915050565b600061177a8383611750565b9150826002028217905092915050565b61179382610e70565b67ffffffffffffffff8111156117ac576117ab610fdc565b5b6117b68254611504565b6117c18282856116fd565b600060209050601f8311600181146117f457600084156117e2578287015190505b6117ec858261176e565b865550611854565b601f198416611802866115de565b60005b8281101561182a57848901518255600182019150602085019450602081019050611805565b868310156118475784890151611843601f891682611750565b8355505b6001600288020188555050505b505050505050565b600061186782610bdb565b91507fffffffffffffffffffffffffffffffffffffffffffffffffffffffffffffffff82036118995761189861157b565b5b600182019050919050565b60006118af82610bdb565b91506118ba83610bdb565b92508282039050818111156118d2576118d161157b565b5b92915050565b7f4e487b7100000000000000000000000000000000000000000000000000000000600052603260045260246000fdfea264697066735822122078f876bb6f6a19e8dff04fe544456976cf9ce8bfa5cdeaa9d3646b22580cc90a64736f6c63430008180033",
  "linkReferences": {},
  "deployedLinkReferences": {}
}